:020000040800F2
:1000000048350020990100084127000843270008CF
:10001000472700084B2700084F2700080000000072
:1000200000000000000000000000000001010008C6
:10003000532700080000000045010008D32C0008E9
:10004000B3010008B3010008B3010008B3010008C0
:10005000B3010008B3010008B3010008B3010008B0
:10006000B3010008B3010008B3010008B3010008A0
:10007000B3010008B3010008B3010008B301000890
:10008000B3010008B301000889280008B301000883
:10009000B3010008B3010008B3010008B301000870
:1000A000B3010008B3010008B3010008B301000860
:1000B000D9300008B3010008B3010008B3010008FB
:1000C000B3010008B3010008B3010008B301000840
:1000D000B3010008432E0008B30100085B2F00089D
:1000E000B3010008B3010008B3010008DFF80CD029
:1000F00007F012FA00480047CD26000848350020D6
:10010000224B19680868B0E8F00F80F30988BFF344
:100110006F8F4FF0000080F311884EF00D0E704786
:100120000000000006480068006880F3088862B696
:1001300061B6BFF34F8FBFF36F8F00DF00BF00BF0B
:1001400008ED00E0EFF30980BFF36F8F0F4B1A68E3
:1001500020E9F00F106008B54FF0500080F31188CF
:10016000BFF34F8FBFF36F8F05F0D5F84FF000004E
:1001700080F31188BDE8084019680868B0E8F00FFE
:1001800080F30988BFF36F8F704700BF2C050020F4
:10019000EFF3058070470000064880470648004797
:1001A000FEE7FEE7FEE7FEE7FEE7FEE7FEE7FEE727
:1001B000FEE7FEE79B020008ED0000080CB50020FA
:1001C000019000906C48006840F480306A490860F3
:1001D00000BF6948006800F4003000900198401C9E
:1001E0000190009818B90198B0F5A06FF1D162485C
:1001F000006800F4003010B10120009001E0002000
:1002000000900098012843D15C48006840F010003D
:100210005A4908600846006820F003000860084654
:10022000006840F002000860534840685249486046
:100230000846406848600846406840F4806048606E
:100240000846406820F47C1048600846406840F446
:10025000E81048600846006840F08070086000BF01
:100260004548006800F000700028F9D04248406816
:1002700020F00300404948600846406840F0020012
:10028000486000BF3C48406800F00C000828F9D1E5
:100290000CBD10B5FFF792FF10BD10B536480068D1
:1002A00040F001003449086008464068344908407D
:1002B0003149486008460068324908402E490860C4
:1002C0000846006820F4802008600846406820F452
:1002D000FE0048604FF41F008860FFF7DAFF4FF020
:1002E00000602949086010BD10B5002100200022DF
:1002F000214B5B6803F00C0121B1042906D00829C9
:1003000028D107E0214B224C236027E01F4B204CD3
:10031000236023E0184B5B6803F47010164B5B6896
:1003200003F48032022303EB904022B9194B43437C
:10033000174C23600DE0104B5B6803F4003323B1CE
:10034000144B4343124C236003E0104B4343104CC7
:10035000236003E00D4B0E4C236000BF00BF064B33
:100360005B68C3F303130C4CE15C094B1B68CB4087
:10037000074C236010BD0000001002400020024026
:100380000000FFF8FFFFF6FE08ED00E000127A0023
:100390000000002000093D00040000203149014315
:1003A000314A1160704770B5002100230F22C478D4
:1003B00004B32D4C246804F4E064C4F5E064210A1D
:1003C000C1F10403CA40447804FA03F1847814406C
:1003D00021430901254C0678A155047804F01F0536
:1003E0000124AC4005786D11AD0005F1E025C5F89C
:1003F000004109E0047804F01F050124AC401C4DC5
:100400000678761145F8264070BD1A4A0A40024324
:10041000154B1B1F1A60704739B1134A121D126821
:100420000243114B1B1D1A6006E00F4A121D126891
:1004300082430D4B1B1D1A607047042808D14FF0F2
:10044000E021096941F004014FF0E022116107E069
:100450004FF0E021096921F004014FF0E022116121
:10046000704700000000FA050CED00E000E400E039
:1004700080E100E080FFFF1F10B50446FA48844287
:1004800008D10121401500F055FD0021601500F054
:1004900051FD17E0F548844208D10121001500F014
:1004A00049FD0021201500F045FD0BE0F048844295
:1004B00008D10121C80300F03DFD00214FF40040A8
:1004C00000F038FD10BD30B5024600200023506812
:1004D000E84C20400D790C6844EA05242043506024
:1004E0009068E54C2040D1E902542C434D7944EA10
:1004F000450420439060D06A20F470000C7C641E98
:10050000E4B2234340EA0350D06230BD00210160D1
:10051000017141718160C16001210174704721B195
:10052000826842F00102826003E0826822F00102E8
:100530008260704721B1826842F48072826003E079
:10054000826822F480728260704710B50023CBB2BB
:100550001AB144681C43446002E044689C43446010
:1005600010BD816841F0080181607047014600209C
:100570008A6802F008020AB1012000E000207047FA
:10058000816841F0040181607047014600208A685B
:1005900002F004020AB1012000E00020704721B1FE
:1005A000826842F4A002826003E0826822F4A00222
:1005B00082607047014600208A6802F480020AB116
:1005C000012000E00020704710B50A4600210023FA
:1005D000416821F46041531E41EA4331416010BD3E
:1005E00021B1426842F40062426003E0426822F4B2
:1005F000006242607047F0B504460D4600200021BD
:10060000092D11DDE068A5F10A0606EB460707266D
:1006100006FA07F18843A5F10A0606EB460603FA37
:1006200006F10843E0600CE0206905EB450707266A
:1006300006FA07F1884305EB450603FA06F108437D
:100640002061072A0FDA606B561E06EB86071F260D
:1006500006FA07F18843561E06EB860605FA06F1F0
:100660000843606322E00D2A0FDA206BD61F06EBE9
:1006700086071F2606FA07F18843D61F06EB860673
:1006800005FA06F10843206310E0E06AA2F10D06C6
:1006900006EB86071F2606FA07F18843A2F10D062E
:1006A00006EB860605FA06F10843E062F0BD21B1CB
:1006B000826842F48012826003E0826822F4801231
:1006C000826070470146C86C80B2704766484C3003
:1006D0000068704721B1426842F48062426003E0E2
:1006E000426822F480624260704721B1426842F45D
:1006F0008052426003E0426822F4805242607047B8
:100700000A460021816821F4E0411143816070476D
:1007100021B1826842F40042826003E0826822F4E0
:1007200000428260704721B1826842F40212826006
:1007300003E0826822F402128260704701460020C2
:100740008A6802F400120AB1012000E0002070471C
:10075000F0B504461546002000220026092911DDC7
:10076000E068A1F10A0707EB470C072707FA0CF22C
:100770009043A1F10A0707EB470703FA07F210437A
:10078000E0600CE0206901EB410C072707FA0CF24E
:10079000904301EB410703FA07F210432061A06B7D
:1007A000C0F30156EF1C06F1010CA7EB0C0707EB99
:1007B000870C1F2707FA0CF29043EF1C06F1010C7F
:1007C000A7EB0C0707EB870701FA07F21043A063BA
:1007D000F0BD10B50A4600210023816B21F44011C1
:1007E000531E41EA0351816310BD08B500230093F5
:1007F0000090009B0B440093009B1A6008BD08B555
:10080000024600200090009201F12800009B18444D
:1008100000900098006880B208BD0A460021416837
:10082000164B194011434160704741628262704724
:100830000A460021416821F01F01114341607047C1
:1008400040B109490831096841F40001064A0832FB
:10085000116007E004490831096821F40001024AE7
:100860000832116070470000002401400028014058
:10087000003C0140FFFEF0FFFDF7F1FFFFFD3FFFF1
:100880000246002013680B400BB1012000E000205D
:100890007047CA430260704770B5024600200023CB
:1008A00000240B125568CEB205EA060415681D40F7
:1008B00015B10CB1012000E0002070BD00220A1229
:1008C000D34303607047000010B50446CC4884420F
:1008D00008D10121042000F02DFB0021042000F0AC
:1008E00029FB46E0C748844208D10121082000F0D6
:1008F00021FB0021082000F01DFB3AE0C2488442A1
:1009000008D10121102000F015FB0021102000F07B
:1009100011FB2EE0BD48844208D10121202000F0C7
:1009200009FB0021202000F005FB22E0B8488442AA
:1009300008D10121402000F0FDFA0021402000F004
:10094000F9FA16E0B348844208D10121802000F072
:10095000F1FA0021802000F0EDFA0AE0AE4884426E
:1009600007D10121801500F0E5FA0021A01500F063
:10097000E1FA10BD10B50121084600F0DBFA0021B4
:10098000012000F0D7FA10BD2DE9F0410246002504
:100990000026002000230024002791F803C00CF05B
:1009A0000F0591F803C00CF0100CBCF1000F03D040
:1009B00091F802C04CEA050591F800C0BCF1000FA7
:1009C00031D0146800202BE04FF0010C0CFA00F33A
:1009D000B1F800C00CEA03069E4220D183004FF01C
:1009E0000F0C0CFA03F7BC4305FA03FC4CEA0404B1
:1009F00091F803C0BCF1280F06D14FF0010C0CFA9E
:100A000000FCC2F814C00AE091F803C0BCF1480F22
:100A100005D14FF0010C0CFA00FCC2F810C0401CCC
:100A20000828D1D31460B1F800C0BCF1FF0F34DD49
:100A3000546800202EE000F1080C4FF0010808FA7D
:100A40000CF3B1F800C00CEA03069E4221D18300EA
:100A50004FF00F0C0CFA03F7BC4305FA03FC4CEA09
:100A6000040491F803C0BCF1280F05D100F1080C73
:100A700008FA0CF8C2F8148091F803C0BCF1480FD2
:100A800007D100F1080C4FF0010808FA0CF8C2F881
:100A90001080401C0828CED35460BDE8F0814FF68A
:100AA000FF710180022181700421C17070470246EC
:100AB000002093680B400BB1012000E0002070473C
:100AC0000146886880B2704702460020D3680B4018
:100AD0000BB1012000E0002070470146C86880B2D9
:100AE000704701617047416170470AB1016100E0E0
:100AF00041617047C16070474FF480320A438261A0
:100B00008161826182698269704702460020434B9D
:100B100018684FF68073184040EA021008433F4BB4
:100B2000186070473E49C8617047F0B50A46002317
:100B300000240021002500F00046B6F1004F02D14C
:100B4000364EF16901E0354E7168C0F3034583B25A
:100B500000F44016B6F5401F08D121F070612F4E09
:100B6000766826F070662D4F7E6012E000F48016E5
:100B7000B6F5801F06D1032606FA05F4A14341F01D
:100B8000706106E0460D360103FA06F6B14341F006
:100B9000706122B1460D360103FA06F6314300F0CA
:100BA0000046B6F1004F02D11C4EF16101E01B4E30
:100BB0007160F0BD30B500228B071C0F0F2303FAC4
:100BC00004F2164B08338C1053F824309343134C23
:100BD00008348D1044F8253023468C1053F8243007
:100BE0008C07240F00FA04F423430C4C08348D10B6
:100BF00044F8253030BD0A49DC31086070470000F8
:100C000000080140000C01400010014000140140A8
:100C100000180140001C014000200140000001407C
:100C200000002042DF48006840F00100DD49086014
:100C300008464068DC490840DA49486008460068D0
:100C4000DA490840D74908600846006820F4802047
:100C500008600846406820F4FE0048604FF41F001A
:100C600088607047CF49096821F48031CD4A11600E
:100C70001146096821F480211160B0F5803F03D04E
:100C8000B0F5802F0ED106E0C649096841F48031E5
:100C9000C44A116007E0C349096841F4A021C14A70
:100CA000116000E000BF00BF704710B50146002290
:100CB000002300204A11012A02D1BA4C236806E021
:100CC000022A02D1B74C236A01E0B64C636A01F0F4
:100CD0001F02012494401C400CB1012000E00020C0
:100CE00010BD38B5002000900024002500BF312041
:100CF000FFF7DBFF05460098401C00900098B0F518
:100D0000A06F01D0002DF2D03120FFF7CEFF08B147
:100D1000012400E00024204638BD01460020A14AFD
:100D2000106820F0F80040EAC10010607047A04948
:100D300008607047024600209A4B586820F47C10E7
:100D400042EA01031843974B586070479849086678
:100D5000704701460020934A506820F00300084382
:100D6000506070478F48406800F00C0070470146A3
:100D700000208C4A506820F0F00008435060704713
:100D800001460020874A506820F4E0600843506024
:100D9000704701460020834A506820F4605040EAC2
:100DA000C1005060704729B17E4A527A02437D4BA0
:100DB0005A7204E07B4A527A82437A4B5A727047E5
:100DC0007B49D8310860704701460020754A506859
:100DD00020F440400843506070470021714A20329F
:100DE0001170704A82F82010012802D004280AD11C
:100DF00004E001216B4A2032117005E00521694AA7
:100E00002032117000E000BF00BF704769490860E0
:100E100070476449096A0143624A11627047654933
:100E200044390860704730B50021002200240023B7
:100E30005C4D6D6805F00C0121B1042905D008292D
:100E400023D105E05C4D056022E05B4D05601FE0AD
:100E5000544D6D6805F47012524D6D6805F4803480
:100E6000022505EB92421CB9544D554305600BE039
:100E70004C4D6D6805F400351DB1504D554305606E
:100E800002E04D4D5543056002E04B4D056000BF4B
:100E900000BF444D6D6805F0F0010909484D6B5CD9
:100EA0000568DD4045603F4D6D6805F4E061090A65
:100EB000434D6B5C4568DD4085603A4D6D6805F4D7
:100EC0006051C90A3E4D6B5C4568DD40C560354DDB
:100ED0006D6805F44041890B3A4D6B5CC568B5FB04
:100EE000F3F5056130BD29B12E4A526902432D4BFD
:100EF0005A6104E02B4A526982432A4B5A61704777
:100F000029B1284A92690243264B9A6104E0254A96
:100F100092698243234B9A61704729B1214AD26971
:100F20000243204BDA6104E01E4AD26982431D4B22
:100F3000DA61704729B11B4AD2680243194BDA6063
:100F400004E0184AD2688243164BDA60704729B130
:100F5000144A12690243134B1A6104E0114A1269E0
:100F60008243104B1A61704712494039086070473C
:100F70000F49C86470470B49C87170470948406AF7
:100F800040F0807007494862704701460020054ADA
:100F900092680A400AB1012000E000207047014930
:100FA00088727047001002400000FFF8FFFFF6FE55
:100FB000000042428004424200127A0000093D00D3
:100FC000140000202400002010B50446FE4884428E
:100FD00008D10121C014FFF7ADFF0021E014FFF795
:100FE000A9FFC4E0B4F1804F08D101210846FFF702
:100FF000AEFF00210120FFF7AAFFB8E0F3488442CA
:1010000008D101210220FFF7A2FF00210220FFF7F3
:101010009EFFACE0EE48844208D101210420FFF796
:1010200096FF00210420FFF792FFA0E0E9488442E8
:1010300008D101210820FFF78AFF00210820FFF7CF
:1010400086FF94E0E448844208D101211020FFF794
:101050007EFF00211020FFF77AFF88E0DF488442FE
:1010600008D101212020FFF772FF00212020FFF787
:101070006EFF7CE0DA48844208D101214014FFF77A
:1010800059FF00216014FFF755FF70E0D5488442F6
:1010900009D10121C804FFF74DFF00214FF40020C2
:1010A000FFF748FF63E0D048844209D101210805D9
:1010B000FFF740FF00214FF48010FFF73BFF56E0A1
:1010C000CA48844209D101214805FFF733FF0021B6
:1010D0004FF40010FFF72EFF49E0C548844208D1C5
:1010E00001214020FFF733FF00214020FFF72FFFB1
:1010F0003DE0C048844208D101218020FFF727FF4E
:1011000000218020FFF723FF31E0BB48844208D153
:1011100001218015FFF71BFF0021A015FFF717FF26
:1011200025E0B648844209D101210804FFF702FFF7
:1011300000214FF48030FFF7FDFE18E0B0488442F4
:1011400009D101214804FFF7F5FE00214FF40030DA
:10115000FFF7F0FE0BE0AB48844208D10121880480
:10116000FFF7E8FE00214FF48020FFF7E3FE10BDFB
:1011700000220288944B98420ED0994B98420BD093
:10118000B0F1804F08D0914B984205D0904B9842D7
:1011900002D0904B984204D14FF68F731A404B887F
:1011A0001A438D4B984207D08C4B984204D04FF68F
:1011B000FF431A40CB881A4302808B8883850B88B3
:1011C0000385814B98420BD0854B984208D08B4BBE
:1011D000984205D08A4B984202D08A4B984201D15E
:1011E0000B7A038601238382704770B500240022A6
:1011F0000023058C4FF6FE7635400584028C8388EB
:10120000048B4FF68F752C40B51E2C400D882C4357
:10121000751E2A400D892A434D882A436A4DA842EB
:101220000BD06F4DA84208D0744DA84205D0744D24
:10123000A84202D0734DA84213D14FF6F7752A4049
:101240004D892A434FF6FB752A408D882A434FF675
:10125000FF652B404FF6FF552B408D892B43CD89E1
:101260002B4383800483CD888586028470BD70B54E
:10127000002400220023058C4FF6EF7635400584CC
:10128000028C8388048B48F6FF752C404FF6FF458F
:101290002C400D884FF6FF7606EA05252C434FF6C5
:1012A000DF752A400D8906EA05152A434D8806EAAE
:1012B00005152A43444DA84202D0494DA8421DD1EC
:1012C0004FF67F752A404D894FF6FF7606EA0515E1
:1012D0002A434FF6BF752A408D8806EA05152A4332
:1012E0004FF6FF352B404FF2FF752B408D8906EAF4
:1012F00085052B43CD8906EA85052B43838004832E
:10130000CD880587028470BD70B5002400220023BB
:10131000058C4FF6FF6635400584028C8388848BEC
:101320004FF68F752C404FF6FC752C400D882C43E2
:101330004FF6FF552A400D894FF6FF7606EA052540
:101340002A434D8806EA05252A431F4DA84202D0AC
:10135000234DA8421DD14FF2FF752A404D894FF60B
:10136000FF7606EA05252A434FF6FF352A408D8889
:1013700006EA05252A434EF6FF752B404DF6FF750C
:101380002B408D8906EA05152B43CD8906EA051504
:101390002B4383808483CD888587028470BD70B59C
:1013A000002200230024058C4EF6FF76354005848C
:1013B000038C8488828B48F6FF752A404FF6FF45E0
:1013C0002A400D8820E00000002C0140000400406D
:1013D00000080040000C00400010004000140040D5
:1013E00000340140004C01400050014000540140D5
:1013F00000180040001C0040002000400040014058
:1014000000440140004801404FF6FF7606EA0525FA
:101410002A434DF6FF752B400D8906EA05352B430F
:101420004D8806EA05352B43FA4DA84202D0FA4D05
:10143000A84208D14BF6FF752C408D894FF6FF76F8
:1014400006EA85152C4384808283CD88A0F840501D
:10145000038470BD828B4FF2FF331A408283828BEC
:101460004FF6FF7303EA01231A4382837047F0B5F6
:101470000C461546002200210026078C4EF6FF7C04
:1014800007EA0C070784828B018C4FF6FF7707EA87
:10149000043640F6FF473A404FF6FF7707EA052744
:1014A0003A434FF6FF7707EA03373A43D94FB8423A
:1014B0000ED0D94FB8420BD0B0F1804F08D0D74FE3
:1014C000B84205D0D64FB84202D0D64FB84206D166
:1014D0004DF6FF77394046F48057394305E047F62B
:1014E000FF57394044F48057394382830184F0BD6B
:1014F000828B4FF6F3731A408283828B0A43828376
:101500007047F0B50C461546002200210026078CD6
:101510004FF6FF6C07EA0C070784828B018C4FF6AD
:10152000FF7707EA04264FF60C773A404FF6FF772D
:1015300007EA03172F433A43B64FB8420ED0B64FCF
:10154000B8420BD0B0F1804F08D0B44FB84205D0AC
:10155000B34FB84202D0B34FB84206D14FF6FF574F
:10156000394046F48077394305E04FF2FF57394060
:1015700044F48077394382830184F0BD028B4FF2BB
:10158000FF331A400283028B4FF6FF7303EA0123F5
:101590001A4302837047F0B50C461546002200211D
:1015A0000026078C4FF6EF7C07EA0C070784028BB6
:1015B000018C4FF6FF7707EA041640F6FF473A40E2
:1015C0004FF6FF7707EA03373A434FF6FF7707EA0C
:1015D00005273A438F4FB8420ED08F4FB8420BD0F9
:1015E000B0F1804F08D08D4FB84205D08C4FB84233
:1015F00002D08C4FB84206D14FF6DF77394046F023
:101600001007394305E04FF65F77394044F0100783
:10161000394302830184F0BD028B4FF6F3731A4005
:101620000283028B0A4302837047F0B50C461546CD
:1016300000220021068C4FF6FE773E400684028B86
:10164000018C4FF60C7632407E1C06EA03162E43C0
:101650003243704EB0420ED06F4EB0420BD0B0F15C
:10166000804F08D06D4EB04205D06D4EB04202D0D2
:101670006C4EB04206D14FF6FD76314044F0010683
:10168000314305E04FF6F576314044F00106314331
:1016900002830184F0BD70B505460C465D48854265
:1016A0000ED05D4885420BD0B5F1804F08D05B4825
:1016B000854205D05A48854202D05A48854200D119
:1016C00000E000BF208850B92389A288618828469D
:1016D000FFF7ABFFE1882846FFF79EFF25E0208853
:1016E00004280AD12389A28861882846FFF753FF7E
:1016F000E1882846FFF742FF17E0208808280AD132
:101700002389A28861882846FFF7FBFEE1882846E6
:10171000FFF7EEFE09E02389A28861882846FFF7DB
:10172000A6FEE1882846FFF795FE70BD2DE9F04141
:1017300005460C4600260127608808B9022600E00D
:101740000026A088012801D1022700E00127208877
:10175000A0B92389A28861882846FFF766FFE1883F
:101760002846FFF759FF23893A4631462846FFF7B6
:1017700012FFE1882846FFF701FF13E02389A288C2
:1017800061882846FFF707FFE1882846FFF7F6FE45
:1017900023893A4631462846FFF747FFE188284625
:1017A000FFF73AFFBDE8F0810A884B881A438B881F
:1017B0001A43CB881A430B891A434B891A438B89E6
:1017C0001A43A0F8442070474FF6FF718180002132
:1017D0000180C180418001727047002101804180F9
:1017E0008180C180018141818181C1817047002157
:1017F00001804180012181800021C18001817047E9
:101800000021018041808180C180018141818181ED
:1018100070470000002C01400034014000040040EB
:1018200000080040000C004021B1028842F0010293
:10183000028004E002884FF6FE731A40028070476F
:1018400031B1B0F8442042F40042A0F8442005E051
:10185000B0F84420C2F30E02A0F8442070471AB139
:1018600083890B43838102E083898B4383817047A3
:101870008182704741EA0203A0F8483070471AB1EC
:1018800083890B43838102E083898B438381704783
:1018900001894FF6F8721140018170470A46002114
:1018A00001894FF68F73194011430181704730B59C
:1018B00004460D4629462046FFF7F0FF208940F0F8
:1018C0000700208130BD2DE9F04104460D46164643
:1018D0001F46602D06D13B46012231462046FFF7C8
:1018E0005AFE05E03B46012231462046FFF79DFEA9
:1018F00029462046FFF7D2FF208940F007002081CB
:10190000BDE8F08130B50C4600210189C9B24FF61F
:10191000FF7505EA0325154325432943018130BDA1
:101920002DE9F04105460E461746984600244346E9
:101930003A4631462846FFF7E5FF2C894FF6F87006
:10194000044044F007044FF68F70044044F07004E4
:101950002C81BDE8F081F0B504460D4616461F46C1
:101960003B46324629462046FFF7CCFF208940F40B
:1019700080402081F0BD0185828270470A460021A7
:1019800001884FF68F731940114301807047F0B5FD
:101990000C4615461E460021002200230189028BB9
:1019A000038C4FF6F877394021434FF6FC473A4015
:1019B00040F201173A434FF6DD773B404FF6FF7791
:1019C00007EA06172F433B43018102830384F0BDDE
:1019D0000A460021018B4FF68F7319401143018392
:1019E00070470A460021018B48F6FF7319404FF6F5
:1019F000FF7303EA02231943018370470A4600215B
:101A0000818B4FF68F7319401143818370470A46CB
:101A10000021818B48F6FF7319404FF6FF7303EAEC
:101A2000022319438183704721B1028842F080026A
:101A3000028004E002884FF67F731A4002807047EC
:101A400021B1828842F00402828004E082884FF64D
:101A5000FB731A408280704721B1828842F00802ED
:101A6000828004E082884FF6F7731A4082807047C4
:101A700021B1828842F00102828004E082884FF620
:101A8000FE731A40828070470A460021018B4FF690
:101A9000F77319401143018370470A460021018BF7
:101AA0004FF2FF7319404FF6FF7303EA0223194305
:101AB000018370470A460021818B4FF6F773194066
:101AC0001143818370470A460021818B4FF2FF73D7
:101AD00019404FF6FF7303EA0223194381837047CD
:101AE0000A460021018B4FF6FB7319401143018315
:101AF00070470A460021018B4FF6FF3319404FF61D
:101B0000FF7303EA02231943018370470A46002149
:101B1000818B4FF6FB7319401143818370470A464E
:101B20000021818B4FF6FF3319404FF6FF7303EA14
:101B300002231943818370470A460021018B4FF627
:101B40007F7319401143018370470A460021018BBE
:101B5000C1F30E014FF6FF7303EA02231943018319
:101B600070470A460021818B4FF67F73194011435D
:101B7000818370470A460021818BC1F30E014FF625
:101B8000FF7303EA02231943818370470A46002149
:101B9000018C4FF6FD7319401143018470470A46CA
:101BA0000021018C4FF6F7731940114301847047EF
:101BB0000A460021018C4FF6DF7319404FF6FF7380
:101BC00003EA02131943018470470A460021018C7D
:101BD0004FF67F7319404FF6FF7303EA0213194360
:101BE000018470470A460021018C4FF6FF531940CB
:101BF0004FF6FF7303EA02231943018470470A4634
:101C00000021018C4FF2FF7319404FF6FF7303EA76
:101C100002231943018470470A460021018C4DF6C6
:101C2000FF7319404FF6FF7303EA0233194301842F
:101C3000704730B5002301248C40A3B2048C9C4330
:101C40000484048C02FA01F5ADB22C43048430BD47
:101C500030B5002304248C40A3B2048C9C4304843C
:101C6000048C02FA01F5ADB22C43048430BD70B58A
:101C70000346002000241846183001258D40ACB2E0
:101C80001D8CA5431D8409B1082909D100EB610011
:101C9000056825F0700505600568154305600EE0D0
:101CA0000D1FC5F34E052844056825F4E045056081
:101CB00005684FF6FF7606EA02263543056070BDDB
:101CC00021B1028842F00202028004E002884FF64D
:101CD000FD731A400280704721B1028842F004026D
:101CE000028004E002884FF6FB731A4002807047BE
:101CF00021B1828842F08002828004E082884FF61F
:101D00007F731A408280704702884FF6F7731A403B
:101D1000028002880A430280704782884FF68F73E0
:101D20001A40828082880A438280704702894FF677
:101D3000F8731A40028102890A43028170470289BE
:101D40004FF67F731A40028102890A43028170476D
:101D5000818470478185704781867047018770470D
:101D600081877047A0F84010704702884FF6FF4304
:101D70001A40028002880A43028070470146888E1A
:101D800070470146088F70470146888F70470146AB
:101D9000B1F8400070470146888C70470146088DB5
:101DA000704702460020138A0B400BB1012000E06F
:101DB00000207047CA430282704730B502460020B7
:101DC00000230024158A05EA0103958905EA010428
:101DD00013B10CB1012000E0002030BDCA430282E3
:101DE0007047000010B50446FB48844209D1012128
:101DF0008803FFF79FF800214FF48040FFF79AF81F
:101E000032E0F648844209D101214804FFF79FF8E7
:101E100000214FF40030FFF79AF825E0F0488442A3
:101E200009D101218804FFF792F800214FF48020A6
:101E3000FFF78DF818E0EB48844209D10121C8046E
:101E4000FFF785F800214FF40020FFF780F80BE042
:101E5000E548844208D101210805FFF778F8002100
:101E60004FF48010FFF773F810BD2DE9F04786B0EE
:101E700005460E460024A24600BFA1460027B089B1
:101E800000B100BF2F462C8A4CF6FF700440F0884A
:101E900004432C82AC894EF6F3100440B08831899B
:101EA0000843718908430443AC81AC8A4FF6FF4074
:101EB0000440B0890443AC8201A8FEF7B4FFC648D1
:101EC000874202D1DDF810A001E0DDF80CA0A8895E
:101ED00000F4004040B10AEBCA0000EB0A10316880
:101EE0004900B0FBF1F807E00AEBCA0000EB0A106A
:101EF00031688900B0FBF1F86420B8FBF0F0040110
:101F00002009642101FB1089A88900F4004040B138
:101F1000322000EBC900B0FBF1F000F007000443F1
:101F200008E0322000EB09106421B0FBF1F000F072
:101F30000F0004432C8106B0BDE8F0874FF4165122
:101F4000016000218180C18001810C21418100213B
:101F50008181704710B502460020108A4FF2FF03BE
:101F600018400B884C8823438C882343CC88234318
:101F70001843108210BD0021018041808180C18002
:101F8000704721B1828942F40052828104E0828943
:101F90004DF6FF731A4082817047F0B50346002466
:101FA00000260025002040F66A17B94200D100BF84
:101FB0001846C1F3421401F01F06012707FA06F57F
:101FC000012C01D10C3004E0022C01D1103000E0D2
:101FD00014301AB107682F43076002E00768AF4367
:101FE0000760F0BD1AB1838A0B43838202E0838AC3
:101FF0008B4383827047028A4FF6F0731A40028245
:10200000028A0A430282704782894FF2FF731A40A4
:10201000828182890A438281704721B1828942F09C
:102020000202828104E082894FF6FD731A408281A8
:102030007047028A4FF6DF731A400282028A0A430F
:102040000282704721B1028A42F48042028204E097
:10205000028A4BF6FF731A4002827047C1F30802EE
:102060008280704701468888C0F3080070478189E4
:1020700041F0010181817047028BD2B20283028B51
:1020800042EA012202837047028B02F47F420283FC
:10209000028B0A430283704721B1828A42F02002F8
:1020A000828204E0828A4FF6DF731A408282704790
:1020B00021B1828A42F01002828204E0828A4FF6C5
:1020C000EF731A408282704721B1828A42F008027F
:1020D000828204E0828A4FF6F7731A408282704748
:1020E00021B1828942F40042828103E08289C2F3F5
:1020F0000E028281704721B1828A42F4006282829C
:1021000004E0828A4FF2FF731A4082827047828A0B
:102110004FF6FB731A408282828A0A43828270479A
:1021200021B1828A42F00202828204E0828A4FF662
:10213000FD731A408282704702460020B1F5007F8D
:1021400000D100BF13880B400BB1012000E000203C
:10215000704701F40072B2F5007F00D100BFCA439E
:102160000280704770B5024600240023002500203D
:1021700040F66A16B14200D100BFC1F3421501F02A
:102180001F03012606FA03F3012D02D1968933407D
:1021900006E0022D02D1168A334001E0968A3340D0
:1021A0000C12012606FA04F41688344013B10CB15F
:1021B000012000E0002070BD10B50022002340F691
:1021C0006A14A14200D100BF0A1201249440A3B2B4
:1021D000DC43048010BD0000003801400044004092
:1021E00000480040004C004000500040B0F9002082
:1021F000B1F900309A420EDAB1F90020B0F900309E
:10220000D21A322A04DD0288323212B2028016E07B
:102210000A88028013E0B0F90020B1F900309A4238
:102220000DDDB0F90020B1F90030D21A322A04DDF8
:102230000288323A12B2028001E00A8802807047B6
:1022400095E0FC48C068B0F57A6F51D2FA49086849
:1022500004F0D5FF04464FF07732F84B04F0E2FF6C
:102260003DD2F5480168F64804F0DEFD824604F0F0
:10227000C6FF06464FF06632F24B04F020FF0446DC
:1022800000224FF0804304F0A8FE804604F098FF3F
:1022900000B2ED49C880ED48407890B1EB488078B5
:1022A00078B10846C08840F2DC51081A00B2E8490B
:1022B0004880E548C08840F2DC51081A00B2E44981
:1022C0008880E2484078D8B1E0488078C0B1DE48E4
:1022D000C088DF49C880DC48C088088110E040F22F
:1022E000DC50DB49488088800020C880088107E0F6
:1022F00040F2DC50D649488088800020C8800881A0
:10230000D349D448FFF772FFD149891CD148801CBA
:10231000FFF76CFFCE49091DCE48001DFFF766FF91
:10232000CB49891DCB48801DFFF760FFC948408815
:1023300081B2C948FFF710FDC648808881B2C648FF
:10234000FFF70CFDBB488088C24AD288104481B296
:10235000C148FFF705FDB7480089BE4A12891044FD
:1023600081B2BD48FFF7FEFC142002F0ABFE68E727
:10237000A2E0BA48008804F016FF80460022B84B5D
:1023800004F09DFE06460022B64B04F026FE0446ED
:1023900022460B46B4A1B64805F00CF91023B44A06
:1023A0000021382001F024FBB248008804F0FBFE35
:1023B00006460022AA4B04F082FE04460022A94BE6
:1023C00004F00BFE804642460B46A7A1A84805F044
:1023D000F1F81023A64A0221382001F009FB9548A4
:1023E000C068B0F57A6F06D21023A3A2042138206A
:1023F00001F0FEFA05E01023A1A20421382001F02B
:10240000F7FA0120A049088017E08A489E49098808
:1024100050F821209DA1964805F0CCF89A48007804
:102420004000801EC1B21023914A002001F0E0FA62
:1024300095480088401C94490880934800880428E7
:10244000E3DD7C48C068B0F57A6F03D201207E4995
:10245000088002E000207C4908807B48B0F9020037
:102460007949B1F9001088421DD07248C068B0F5B2
:102470007A6F05D24FF480418548FEF732FB04E0C5
:102480004FF480418248FEF72EFB4FF40041804814
:10249000FEF727FB4FF47A7002F014FE4FF4004170
:1024A0007B48FEF720FB6848008867494880C820C1
:1024B00002F008FE01F0C2F95BE78EE05D4801F032
:1024C0009AF86648008804F069FE824604F097FE98
:1024D00080460022624B04F0F2FD06464FF0663261
:1024E000584B04F07AFD044604F0B4FE52494860AB
:1024F0006048008804F052FE824604F080FE804668
:102500000022574B04F0DBFD06464FF066324D4B80
:1025100004F063FD044604F09DFE47498860486866
:1025200004F06DFE04464FF066325A4B04F07AFE1A
:1025300003D200204549487011E03F49486804F043
:102540005EFE06464FF066323E4B04F043FD044605
:1025500004F080FE3849486001203C494870364903
:10256000886804F04CFE04464FF06632494B04F094
:1025700059FE03D201203549887011E02E49886840
:1025800004F03DFE06464FF066322E4B04F022FD6D
:10259000044604F05FFE2849886000202B498870BB
:1025A000254A9168506804F071FE02D222484068C2
:1025B00001E021488068204908600A469168506817
:1025C00004F064FE02D22148407801E01F48807880
:1025D0001E490870142002F075FD6FE71CB5044613
:1025E00004F0EBF92C48022100238022CDE90010F1
:1025F0002AA1AFF2391002F0E3FA2B48012100239F
:102600008022CDE9001029A1AFF29B2002F0D8FA78
:102610002948022100238022CDE9001027A1AFF232
:10262000DF3002F0CDFA2848006802F017FB04F012
:10263000E7F91CBDD4050020A00500207777D73F1F
:102640000080BB4566660A40C00500202C000020C3
:10265000B6050020AC050020000400404C0000201E
:102660000000B04000807640252E3166000000005A
:10267000320000204E000020535953204F4E0000DE
:10268000535953204F464600300000202564000077
:10269000000C01406666FA3F400000207461736BD5
:1026A000315F7461736B0000440000207461736BD0
:1026B000325F7461736B0000480000207461736BBB
:1026C000335F7461736B00003C0000201CB5FDF7A4
:1026D000E4FD00F006FB4FF44070FDF75FFE01F0F3
:1026E000A5FA4FF4165000F061FB4FF480410F48FB
:1026F000FEF7F7F9022001F0ADFA01F00BFA01F054
:102700009DF800F0B9F800F0BFF900F047FC084868
:10271000012100238022CDE9001006A1AFF2431071
:1027200002F04EFA02F079FF00201CBD000C0140BF
:102730003C00002073746172745F7461736B0000FD
:10274000704700BFFEE700BFFEE700BFFEE700BF27
:10275000FEE7704708B501210420FEF7D1FB3020C9
:10276000ADF8000000208DF8030069465848FEF7D8
:102770000BF908BD00B585B001214802FEF7C0FB8A
:1027800001218802FEF7BCFB002000908DF80400B8
:1027900001208DF805004FF4602002900020039086
:1027A00001208DF8100069464A48FDF78CFE694605
:1027B0004948FDF788FE4FF44040FEF705FB05232E
:1027C000012204214348FDF716FF05230122194683
:1027D0004148FDF710FF01224FF408713D48FDF715
:1027E000B4FE01224FF408713B48FDF7AEFE012113
:1027F0003848FDF794FE3748FDF7B3FE00BF354873
:10280000FDF7B4FE0028FAD13248FDF7B9FE00BF4B
:102810003048FDF7BAFE0028FAD101212D48FDF716
:10282000BEFE01212C48FDF77AFE2B48FDF799FEEC
:1028300000BF2948FDF79AFE0028FAD12648FDF787
:102840009FFE00BF2448FDF7A0FE0028FAD1012119
:102850002148FDF7A4FE05B000BD08B512208DF893
:10286000000001208DF801008DF802008DF80300B2
:102870006846FDF798FD08BD10B5FFF76BFFFFF741
:1028800079FFFFF7EAFF10BD10B54FF4087111484A
:10289000FEF702F8012804D10E48FDF713FF0F4997
:1028A00008804FF408710C48FDF7F6FF012804D1A9
:1028B0000948FDF707FF0A4908804FF408710548E9
:1028C000FDF7FCFF4FF408710348FDF7F7FF10BD5B
:1028D0000008014000240140002801404C00002075
:1028E0004E00002008B54FF4A060FDF757FD2520ED
:1028F0008DF8000001208DF801008DF802008DF8A0
:1029000003006846FDF74FFD08BD00B585B0012105
:102910000420FEF7F5FA01218803FEF7F1FA4FF4DF
:102920000070ADF8100018208DF8130003208DF80A
:10293000120004A95248FEF727F84FF48060ADF862
:10294000100004208DF8130004A94D48FEF71CF870
:102950004FF4E13000900020ADF80400ADF806001F
:10296000ADF80800ADF80C000C20ADF80A0069467F
:102970004448FFF77AFAFFF7B5FF012240F22551EC
:102980004048FFF70AFB01213E48FFF7FAFA05B07D
:1029900000BD70B504460D4629462046FFF75EFB94
:1029A00000BF80212046FFF7C7FB0028F9D070BD8B
:1029B0002DE9F04107460D461646002405E0295D45
:1029C0003846FFF7E6FF601CC4B2B442F7DB00BF35
:1029D00040213846FFF7B0FB0028F9D0BDE8F08170
:1029E00070B506460C46002500BF615D3046FFF716
:1029F000D0FF6D1C605D0028F7D100BF402130463C
:102A0000FFF79AFB0028F9D070BD2DE9F04105468B
:102A10000C46260AE7B231462846FFF71FFB00BFE7
:102A200080212846FFF788FB0028F9D03946284640
:102A3000FFF714FB00BF80212846FFF77DFB00282D
:102A4000F9D0BDE8F08170B504460D46E1B20D48FD
:102A5000FFF704FB00BF80210A48FFF76DFB002849
:102A6000F9D0204670BD10B5044600BF20210548AE
:102A7000FFF762FB0028F9D00248FFF7F3FA10BD18
:102A8000000801400038014000B589B00121022052
:102A9000FEF743FA01210420FEF732FA0121082053
:102AA000FEF72EFA01210846FEF72AFA4020ADF87B
:102AB000200018208DF8230003208DF8220008A99B
:102AC0004848FDF761FF8020ADF8200018208DF800
:102AD000230003208DF8220008A94248FDF754FF87
:102AE0000120ADF8200018208DF8230003208DF878
:102AF000220008A93C48FDF747FF0220ADF820005E
:102B000018208DF8230003208DF8220008A93648EC
:102B1000FDF73AFF4FF48070ADF8200010208DF8DB
:102B2000230003208DF8220008A92E48FDF72CFF72
:102B30004EF65F20ADF808001720ADF80400002025
:102B4000ADF80600ADF80A0001A92848FEF710FB11
:102B50006020ADF810000020ADF818000120ADF89D
:102B6000120004A92148FEF740FB6020ADF81000D8
:102B70000020ADF818000120ADF8120004A91B4890
:102B8000FEF775FB6020ADF810000020ADF81800CE
:102B90000120ADF8120004A91448FEF7B5FB60202F
:102BA000ADF810000020ADF818000120ADF81200BB
:102BB00004A90E48FEF7F3FB08210C48FEF764FF5A
:102BC00008210A48FEF769FF08210848FEF772FF4E
:102BD00008210648FEF777FF01210448FEF724FE8E
:102BE00009B000BD00080140000C01400004004095
:102BF00000EBC001C9004FF0E0225161002191615A
:102C00000521116100BF4FF0E021096901F4803115
:102C10000029F8D004214FF0E0221161704770B50F
:102C2000034600224FF0E0267569464E367803FBD6
:102C300006F44FF0E026B16910E04FF0E026B069ED
:102C400088420BD0884202D20E1A324402E02E1A79
:102C50000E4432440146A24200D300E0EDE700BF3B
:102C600070BD10B5044603E04FF47A70FFF7D7FF4C
:102C7000201EA4F101018CB2F6D110BD70B504463E
:102C800002F07DFF012810D02F480088844206D32F
:102C90002D480088B4FBF0F5284602F013FA2A48C4
:102CA0000088B4FBF0F100FB11444FF47A7104FB8F
:102CB00001F0FFF7B4FF70BD10B5044603E04FF418
:102CC0007A70FFF7DBFF201EA4F101018CB2F6D170
:102CD00010BD10B502F053FF012801D003F0A8FE8B
:102CE00010BD10B50420FDF7A8FB1848006818496E
:102CF000B0FBF1F013490870144800681449B0FBA8
:102D0000F1F44FF47A70444301200F4908804FF0EA
:102D1000E020006940F002004FF0E0210861084621
:102D20004461006940F00100086110BD30B50446FF
:102D3000002504E04FF47A70FFF771FF6D1CA54287
:102D4000F8D330BD500000205200002000000020C9
:102D500040420F00014600BF70470FB410B5B4B039
:102D6000002437A80090C92101A8009B369A04F0DE
:102D700035FC0EE02046621CD4B201AA115C8248E8
:102D8000FFF76CF900BF40217F48FFF7D5F9002815
:102D9000F9D0C82C04DA01A804F036F8A042E9D82A
:102DA0000020009034B010BC5DF814FB10B586B064
:102DB0000446012144F20400FEF7A2F84FF400702B
:102DC000ADF8140003208DF8160018208DF81700B8
:102DD00005A96E48FDF7D8FD4FF48060ADF81400EA
:102DE00004208DF8170005A96848FDF7CDFD2520C2
:102DF0008DF8000001208DF801008DF802008DF89B
:102E000003006846FDF7CFFA01940020ADF80800F2
:102E1000ADF80A00ADF80C00ADF810000C20ADF8CC
:102E20000E0001A95848FFF720F8012240F2255171
:102E30005548FFF7B2F801215348FFF7A2F806B052
:102E400010BD10B540F225514F48FFF78BF940B146
:102E50004D48FFF707F9C4B240F225514A48FFF741
:102E6000ABF910BD0FB410B5B4B0002437A8009072
:102E7000C92101A8009B369A04F0B0FB0EE0204661
:102E8000621CD4B201AA115C4148FFF7E7F800BF09
:102E900040213F48FFF750F90028F9D0C82C04DA48
:102EA00001A803F0B1FFA042E9D80020009034B09F
:102EB00010BC5DF814FB10B586B004460121082053
:102EC000FEF71EF801218804FEF727F84FF4006092
:102ED000ADF8140004208DF8170005A92D48FDF762
:102EE00053FD4FF48060ADF8140003208DF81600F8
:102EF00018208DF8170005A92648FDF745FD4FF469
:102F0000E060FDF74BFA27208DF8000001208DF8D6
:102F100001008DF802008DF803006846FDF743FAC2
:102F200001940020ADF80800ADF80A00ADF80C00DF
:102F3000ADF810000C20ADF80E0001A91448FEF702
:102F400094FF012240F225511148FFF726F8012194
:102F50000F48FFF716F806B010BD10B540F2255126
:102F60000B48FFF7FFF870B10948FFF77BF8C4B2D0
:102F7000532C03D101200849088004E04B2C02D1D6
:102F800002200549088010BD0038014000080140BA
:102F900000480040000C01405A00002000B589B0F4
:102FA00001210846FDF7B9FF01210420FDF7A8FF24
:102FB0000020ADF81E00ADF81A004EF65F20ADF807
:102FC0001C001720ADF8180006A94FF08040FEF74E
:102FD000CFF80020ADF80C00ADF81400ADF80E00ED
:102FE000ADF812000120ADF8100003A98007FEF72C
:102FF00052FB0420ADF80C000020ADF81400ADF831
:103000000E00ADF812000120ADF8100003A98007F2
:10301000FEF741FB0820ADF80C000020ADF81400CD
:10302000ADF80E00ADF812000120ADF8100003A9B4
:103030008007FEF730FB0C20ADF80C000020ADF847
:103040001400ADF80E00ADF812000120ADF810002C
:1030500003A98007FEF71FFB28208DF807000F202B
:10306000ADF8040001A9FE48FDF78EFC0F21FC48D5
:10307000FDF739FD4FF4A060FDF790F91C208DF8A5
:10308000080001208DF80B0003208DF809000020B6
:103090008DF80A0002A8FDF786F901221146900773
:1030A000FEF7DDFB012202214807FEF7D8FB0122D3
:1030B00004210807FEF7D3FB01220821C806FEF70A
:1030C000CEFB012210218806FEF7C9FB01218807EB
:1030D000FEF7AAFB09B000BD10B5E248007800F089
:1030E000800000287ED102214807FEF766FE0028F6
:1030F0006DD0DC48007800F04000A8B90020D94924
:103100000870D94908804FF08040FEF737FED64955
:103110000880D448007840F04000D249087002216D
:103120004807FEF733FD52E0CE48007800F040003B
:1031300000284CD0CB48007840F08000C949087086
:103140004FF08040FEF71AFEC749098888420CDD1F
:103150000020C64908704FF08040FEF70FFEC249BC
:103160000988401AC04908800AE00120BF49087058
:103170008007FEF703FEBC490988081ABA4908808F
:10318000B848007800F03F00B94908600846006878
:103190004EF65F214843B6490860B448007838B11C
:1031A00008460068B0490988401AB149086006E03D
:1031B000AF480068AC4909880844AD490860002060
:1031C000A849087000214FF08040FEF7DFFC012184
:1031D0008807FEF7F2FD28B1A248007800F0400011
:1031E00000B100E015E09F48007800F03F003F2864
:1031F0000AD19C48007840F080009A4908704FF648
:10320000FF709949088004E096480078401C954971
:10321000087002214807FEF7E1FD9248407800F06F
:10322000800000287ED104210807FEF7C6FD002893
:103230006DD08C48407800F04000A8B90020894942
:103240004870894948804FF08040FEF79AFD8649D2
:1032500048808448407840F040008249487002210C
:103260004807FEF7A5FC52E07E48407800F0400099
:1032700000284CD07B48407840F080007949487065
:103280004FF08040FEF77DFD7749498888420CDD8C
:103290000020764948704FF08040FEF772FD724979
:1032A0004988401A704948800AE001206F494870F7
:1032B0008007FEF766FD6C494988081A6A4948800C
:1032C0006848407800F03F00694948600846406817
:1032D0004EF65F214843664948606448407838B1FB
:1032E0000846406860494988401A6149486006E0DC
:1032F0005F4840685C49498808445D49486000204F
:103300005849487000214FF08040FEF751FC0121E0
:103310008807FEF752FD28B15248407800F040007F
:1033200000B100E015E04F48407800F03F003F2832
:103330000AD14C48407840F080004A4948704FF626
:10334000FF704949488004E046484078401C4549A0
:10335000487004210807FEF741FD4248807800F0DC
:10336000800000287AD10821C806FEF726FD002833
:103370006DD03C48807800F04000A8B90020394961
:103380008870394988804FF08040FEF7FDFC36494F
:1033900088803448807840F04000324988700221AB
:1033A0004807FEF71FFC52E02E48807800F04000EE
:1033B000E8B32C48807840F080002A4988704FF0AC
:1033C0008040FEF7E1FC2849898888420CDD002016
:1033D000264988704FF08040FEF7D6FC2249898844
:1033E000401A214988800AE001202049887080071E
:1033F000FEF7CAFC1C498988081A1B4988801948AD
:10340000807800F03F001A498860084680684EF6D0
:103410005F214843164988601448807840B10846C7
:10342000806811498988401A1149886007E00EE0D8
:103430000F4880680C49898808440D49886000203D
:103440000849887000214FF08040FEF7CBFB012136
:103450008807FEF7B2FC08B102480BE024E0000048
:10346000000801405C00002060000020680000208F
:10347000E8050020807800F04000A8B17E48807800
:1034800000F03F003F280AD17B48807840F0800060
:10349000794988704FF6FF707849888004E0764853
:1034A0008078401C744988700821C806FEF796FC95
:1034B0007148C07800F0800000287DD11021880676
:1034C000FEF77BFC00286BD06B48C07800F0400012
:1034D00098B900206849C8704FF08040FEF757FC4B
:1034E0006649C8806448C07840F040006249C870AE
:1034F00002214807FEF790FB52E05F48C07800F0D9
:103500004000E8B35C48C07840F080005A49C87079
:103510004FF08040FEF73BFC5849C98888420CDDDB
:1035200000205749C8704FF08040FEF730FC5349E7
:10353000C988401A5149C8800AE001205049C87022
:103540008007FEF724FC4D49C988081A4B49C880FA
:103550004948C07800F03F004A49C8600846C06842
:103560004EF65F2148434749C8604548C07840B19E
:103570000846C0684149C988401A4249C86007E006
:103580000EE04048C0683D49C98808443D49C860CC
:1035900000203949C87000214FF08040FEF73CFB05
:1035A00001218807FEF709FC30B13348C07800F0EC
:1035B000400008B1304800E014E0C07800F03F005F
:1035C0003F280AD12C48C07840F080002A49C870B2
:1035D0004FF6FF702949C88004E02748C078401C96
:1035E0002549C87010218806FEF7F8FB01218807DD
:1035F000FEF7F4FB10BD2349096840F2DB5291420B
:1036000009D32049096841F64C52914203D81D491B
:103610000968491C41601B49496840F2DB529142EC
:1036200009D31849496841F64C52914203D81549CB
:103630004968491C81601349896840F2DB52914214
:1036400009D31049896841F64C52914203D80D497B
:103650008968491CC1600B49C96840F2DB5291423C
:1036600009D30849C96841F64C52914203D805492B
:10367000C968491C016170475C000020600000209F
:1036800068000020E805002010B54021F748FDF74C
:1036900028FA8021F548FDF724FA8021F348FDF748
:1036A00022FA4021F148FDF71EFA10BD10B5402165
:1036B000EE48FDF716FA8021EC48FDF714FA802158
:1036C000EA48FDF70EFA10BD10B54021E748FDF7B6
:1036D00008FA4021E548FDF706FA10BD2DE9F04152
:1036E00005462C464021E148FDF7FDF9002619E08A
:1036F000274607F08007802F04D18021DB48FDF7A3
:10370000F0F903E08021D948FDF7EDF96006040ED9
:103710004021D648FDF7E5F94021D448FDF7E3F90B
:10372000701CC6B2082EE3DBBDE8F08110B504467C
:10373000FFF7AAFF7820FFF7D1FFFFF7C5FF0020B2
:10374000FFF7CCFFFFF7C0FF2046FFF7C7FFFFF7EB
:10375000BBFFFFF7ABFF10BD10B50446FFF794FFAA
:103760007820FFF7BBFFFFF7AFFF4020FFF7B6FF62
:10377000FFF7AAFF2046FFF7B1FFFFF7A5FFFFF70E
:1037800095FF10BD70B504460D461DB1E0B2FFF7C0
:10379000E3FF02E0E0B2FFF7C9FF70BD70B5064677
:1037A000002418E004F1B0000021FFF7EBFF002136
:1037B0000846FFF7E7FF00211020FFF7E3FF002591
:1037C00005E001213046FFF7DDFF681CC5B2802D02
:1037D000F7DB601CC4B2082CE4DB70BD70B5044696
:1037E0000D4605F1B0000021FFF7CCFF102141EAA2
:1037F00014100021FFF7C6FF04F00F000021FFF7AF
:10380000C1FF70BD10B500218D20FFF7BBFF002167
:103810001420FFF7B7FF0021AF20FFF7B3FF10BD63
:1038200010B500218D20FFF7ADFF00211020FFF71C
:10383000A9FF0021AE20FFF7A5FF10BD70B5002441
:1038400018E004F1B0000021FFF79CFF00210846BA
:10385000FFF798FF00211020FFF794FF002505E0F7
:1038600001210020FFF78EFF681CC5B2802DF7DB19
:10387000601CC4B2082CE4DB70BD70B5002418E0F5
:1038800004F1B0000021FFF77DFF00210846FFF79B
:1038900079FF00211020FFF775FF002505E00121C9
:1038A0000846FFF76FFF681CC5B2802DF7DB601C70
:1038B000C4B2082CE4DB70BD2DE9F04707460E4684
:1038C0009046994600250024A8F12000C5B27F2F1C
:1038D00002DD0027B01CC6B2B9F1100F24D1314669
:1038E0003846FFF77BFF002408E004EB0511604A2F
:1038F000505C0121FFF746FF601CC4B2082CF4DBCA
:10390000701CC1B23846FFF769FF002409E004EBE0
:1039100005110831564A505C0121FFF733FF601C46
:10392000C4B2082CF3DB12E031463846FFF756FFED
:1039300000240AE005EB45014E4A02EB4101085D17
:103940000121FFF71FFF601CC4B2062CF2DBBDE8AB
:10395000F08710B50246012000E050430B1EA1F194
:103960000104E1B2F9D110BD2DE9FF5F0746914690
:103970001E460E9D4FF0000A002435E0301B401E0D
:10398000C1B20A20FFF7E5FFB9FBF0F00A21B0FB56
:10399000F1F201FB1208BAF1000F14D1701EA0421F
:1039A00011DDB8F1000F0CD1AB4605EBDB7149100E
:1039B00001FB0471C8B22B4620220199FFF77CFF5E
:1039C00010E04FF0010AAB4605EBDB71491001FB3B
:1039D0000471C8B208F13001CAB22B460199FFF751
:1039E0006BFF00BF601CC4B2B442C7DBBDE8FF9FE1
:1039F0002DE9F04104460F461546984600260FE093
:103A0000AA5D434639462046FFF756FF04F10800F9
:103A1000C4B2782C02DD0024B81CC7B2701CC6B238
:103A2000A85D0028ECD1BDE8F0812DE9F041804689
:103A30000E461546002731464046FFF7CFFE0024CC
:103A40000AE00D4A02EB8511085D0121FFF79AFE9D
:103A5000781CC7B2601CC4B2102CF2DB701CC1B25F
:103A60004046FFF7BBFE002415E00000000C0140BB
:103A7000FA800008D27E00086C0000206900491C12
:103A8000684A02EB4111085D0121FFF77BFE781CBB
:103A9000C7B2601CC4B2102CF0DBBDE8F0812DE988
:103AA000F05F06460F4690461C46DDF828A04FF012
:103AB000000BE11704EB5171C910A4EBC10131B93E
:103AC0002046E11704EB5171C1F3C70506E020461B
:103AD000E11704EB5171C910491CCDB23D4615E008
:103AE00029463046FFF77AFEB1460BE059460BF106
:103AF000010B1AF801000121FFF744FE09F1010052
:103B000000F0FF09C145F1DB681CC5B2A542E7DB47
:103B1000BDE8F09F08B501210820FDF7F1F9C020AC
:103B2000ADF8000010208DF8030003208DF802008E
:103B300069463D48FCF728FFC0213B48FCF7D1FF10
:103B40004FF44870FFF79AF80021AE20FFF71AFEF5
:103B500000210846FFF716FE00211020FFF712FE95
:103B600000214020FFF70EFE0021B020FFF70AFEE3
:103B700000218120FFF706FE0021FF20FFF702FE53
:103B80000021A120FFF7FEFD0021A620FFF7FAFD8E
:103B90000021A820FFF7F6FD00213F20FFF7F2FDEE
:103BA0000021C820FFF7EEFD0021D320FFF7EAFD3A
:103BB00000210846FFF7E6FD0021D520FFF7E2FDD2
:103BC00000218020FFF7DEFD0021D820FFF7DAFD7D
:103BD00000210520FFF7D6FD0021D920FFF7D2FDF7
:103BE0000021F120FFF7CEFD0021DA20FFF7CAFD0A
:103BF00000211220FFF7C6FD0021DB20FFF7C2FDE8
:103C000000213020FFF7BEFD00218D20FFF7BAFD17
:103C100000211420FFF7B6FD0021AF20FFF7B2FD11
:103C200008BD00006C000020000C014008B5012117
:103C30000820FDF765F94FF44040ADF80000022080
:103C40008DF8020010208DF8030069460E48FCF73D
:103C50009BFE08BD70B50446002512E04FF40041FC
:103C60000948FCF73EFF4FF49670FEF7FAFF4FF459
:103C700000410548FCF737FFC820FEF7F2FF681C3B
:103C8000C5B2A542EADB70BD000C014000F108019D
:103C900041604FF0FF31816000F10801C1600161B6
:103CA00000210160704700210161704742684A604D
:103CB00093688B60936859609160086103685B1C2E
:103CC0000360704710B502460B685C1C0CB91069A4
:103CD00007E002F1080000E04068446824689C4264
:103CE000FAD944684C604C68A160886041600A6100
:103CF0001468641C146010BD01460A69D1E90130E2
:103D00009860D1E9010358605068884201D1886801
:103D10005060002008611068401E106010687047F5
:103D200070B505460E462C462CB940F21B12F8A180
:103D3000FEA003F02FFC02F040FED4E90F12206831
:103D400001FB020060600020A0632068A060E06BBF
:103D5000401E226C216800FB0210E060FF2084F806
:103D6000440084F845009EB9206908B9012000E0AC
:103D70000020A8B904F1100001F001FE80B14FF05D
:103D80008050EE490860BFF34F8FBFF36F8F07E09D
:103D900004F11000FFF77AFF04F12400FFF776FF2B
:103DA00002F02EFE012070BD2DE9F04106460D46C1
:103DB00017469846069C0DB9246000E02760E6632C
:103DC000256401212046FFF7ABFF84F850800020D6
:103DD000A064BDE8F0812DE9F84305460E46904603
:103DE0000DB1012000E0002028B94FF4C472C8A131
:103DF000CEA003F0CFFB0EB9002701E005FB06F7CC
:103E000007F1540002F0E9FE044644B104F15409FC
:103E100043464A46314628460094FFF7C5FF2046F0
:103E2000BDE8F8832DE9F04104460F4615464FF0F2
:103E30000008A66B206C40B9206860BB606801F088
:103E4000FCFE80460020606025E07DB93946226C8A
:103E5000A06802F0B5FF216CA0680844A060D4E916
:103E60000110884217D32068A06014E03946226C04
:103E7000E06802F0A5FF216CE068401AE06021686C
:103E8000E068884203D2216C6068401AE060022D2D
:103E900001D106B1761E701CA0634046BDE8F081DA
:103EA0002DE9F3410D460098846C00272CB940F6AB
:103EB000CE1297A19DA003F06DFBA06BE16B884231
:103EC00001D2012000E0002028B940F6CF1290A1D5
:103ED00096A003F05FFBA06BE16B88421BD294F9C4
:103EE00045602A4669462046FFF79CFF0746701C3E
:103EF00060B9606A08B9012000E0002050B904F1FF
:103F0000240001F03CFD28B1012703E0701C40B201
:103F100084F8450000BF3846BDE8FC8170B5044612
:103F200002F04BFD94F945501AE0A06C38B1002125
:103F30002046FFF7B5FF88B101F0F5FD0EE0606A9D
:103F400008B9012000E0002038B904F1240001F094
:103F500016FD18B101F0E7FD00E003E0681E45B270
:103F6000002DE2DC00BFFF2084F8450002F048FD90
:103F700002F023FD94F9445010E0206908B90120B3
:103F800000E0002048B904F1100001F0F8FC08B18D
:103F900001F0C9FD681E45B200E001E0002DECDC37
:103FA00000BFFF2084F8440002F02AFD70BD70B508
:103FB000054602F002FDA86BE96B884201D101249D
:103FC00000E0002402F01CFD204670BD2DE9FF43F7
:103FD00083B0064688461D464FF0000934462CB98A
:103FE00040F2D9224AA151A003F0D4FAB8F1000F4F
:103FF00001D1206C08B9012000E0002028B940F26E
:10400000DA2243A149A003F0C5FA022D02D1E06BE8
:10401000012801D1012000E0002028B940F2DB2274
:104020003BA142A003F0B6FA01F0A9FD08B905983A
:1040300008B9012000E0002028B940F2DE2234A1B6
:104040003AA003F0A7FA00BF02F0B7FCA06BE16B47
:10405000884201D3022D38D12A4641462046FFF737
:10406000E1FE0746A06C68B129462046FFF718FF1D
:1040700028B34FF0805031490860BFF34F8FBFF332
:104080006F8F1CE0606A08B9012000E0002068B969
:1040900004F1240001F073FC88B14FF080502749EF
:1040A0000860BFF34F8FBFF36F8F08E03FB14FF051
:1040B000805022490860BFF34F8FBFF36F8F02F02B
:1040C0009FFC012007B0BDE8F083059818B902F005
:1040D00097FC0020F6E7B9F1000F04D101A801F028
:1040E000D2FC4FF0010902F08BFC00F08AFF02F0D5
:1040F00064FC94F94400401C10B9002084F844008A
:1041000094F94500401C10B9002084F8450017E0E0
:104110002E2E5C2E2E5C557365725C467265655260
:10412000544F535C71756575652E63004572726FEF
:10413000723A25732C25640D0A00000004ED00E09E
:1041400002F05EFC05A901A801F0AFFCF8B9204619
:10415000FFF72DFFA8B104F11000059901F0B1FBA4
:104160002046FFF7DBFE00F0A1FE00287FF46CAFD5
:104170004FF08050FA490860BFF34F8FBFF36F8F45
:1041800062E72046FFF7CAFE00F090FE5CE720469B
:10419000FFF7C4FE00F08AFE002093E710B5044646
:1041A0004CB1002060602060E06000231A46194690
:1041B0002046FFF70BFF10BD2DE9F0410446012614
:1041C0000027224600210120FFF705FE054628466C
:1041D000FFF7E4FF2846BDE8F08170B50646344697
:1041E0003CB940F24122AFF2D801AFF2C00003F077
:1041F000D1F901F0C1FC616888420CD1E068401E31
:10420000E060E06828B900231A4619462046FFF707
:10421000DDFE012500E00025284670BD70B505468D
:1042200002F0CBFBA86B08B9012400E0002402F0E7
:10423000E7FB204670BD70B504460D46206C70B19A
:10424000216CE0680844E0606168E068884201D35E
:104250002068E0602846226CE16802F0B1FD70BD84
:104260002DE9FF4782B005460E461F464FF0000A73
:104270002C463CB940F2DC42AFF26C11AFF2541064
:1042800003F088F90EB9206C08B9012000E0002085
:1042900038B940F2DD42AFF28811AFF2701003F08E
:1042A00079F901F06CFC08B9049808B9012000E024
:1042B000002038B94FF49C62AFF2AC11AFF2941009
:1042C00003F068F900BF02F078FBD4F83890B9F138
:1042D000000F3DD0D4F80C8031462046FFF7ABFFED
:1042E000DFB9A9F10100A063206810B901F084FDD5
:1042F0006060206908B9012000E0002010BB04F1D3
:10430000100001F03CFBE8B14FF080509449086088
:10431000BFF34F8FBFF36F8F14E0C4F80C80606A57
:1043200008B9012000E0002060B904F1240001F088
:1043300026FB38B14FF0805089490860BFF34F8F9A
:10434000BFF36F8F02F05CFB012006B0BDE8F08781
:10435000049818B902F054FB0020F6E7BAF1000FF8
:1043600004D1684601F08FFB4FF0010A02F048FBD0
:1043700000F047FE02F021FB94F94400401C10B904
:10438000002084F8440094F94500401C10B9002036
:1043900084F8450002F034FB04A9684601F085FB6F
:1043A00040BB2046FFF73AFFF0B1206830B902F079
:1043B00004FB606801F0EFFB02F022FB04F1240033
:1043C000049901F07EFA2046FFF7A8FD00F06EFD8B
:1043D00000287FF478AF4FF0805061490860BFF348
:1043E0004F8FBFF36F8F6EE72046FFF797FD00F00A
:1043F0005DFD68E72046FFF791FD00F057FD204680
:10440000FFF70CFF0028EED000209EE72DE9F041D9
:1044100006460F4634463CB94FF41E72AFF21031D7
:10442000AFF2F82003F0B6F801F0A6FB616888420D
:1044300004D1E068401CE06001250AE000233A4610
:1044400019462046FFF70CFF054615B1E068401CF1
:10445000E0602846BDE8F08170B505460E460DB116
:10446000012000E0002038B940F2BD22AFF26031F7
:10447000AFF2483003F08EF8AE4201D8012000E0E0
:10448000002038B940F2BE22AFF27C31AFF2643086
:1044900003F080F8022200212846FFF79CFC044626
:1044A00004B1A663204670BD2DE9F05F80468A46C0
:1044B00015461E4644463CB940F29F32AFF2B03139
:1044C000AFF2983003F066F8BAF1000F01D1206C1A
:1044D00008B9012000E0002038B94FF46872AFF24B
:1044E000D031AFF2B83003F055F8022E02D1E06BB4
:1044F000012801D1012000E0002038B940F2A132AA
:10450000AFF2F431AFF2DC3003F044F802F0A8FA75
:1045100000BF5021EFF3118081F31188BFF34F8F5B
:10452000BFF36F8F00BF0746A06BE16B884201D3DA
:10453000022E2ED194F945B0324651462046FFF75F
:1045400071FC0BF10100E0B9A06C58B13146204676
:10455000FFF7A6FCD0B1CDB10120286016E0000025
:1045600004ED00E0606A08B9012000E0002068B9AD
:1045700004F1240001F003FA40B13DB101202860AC
:1045800004E00BF1010040B284F845004FF001094E
:1045900001E04FF0000900BF87F3118800BF4846D3
:1045A000BDE8F09F2DE9F04707460D463C463CB973
:1045B00040F23C42AFF2A841AFF2904002F0EAFF75
:1045C000206C08B9012000E0002038B94FF488625F
:1045D000AFF2C441AFF2AC4002F0DCFF206808B992
:1045E000606808B9012000E0002038B940F2454277
:1045F000AFF2E441AFF2CC4002F0CCFF02F030FA6F
:1046000000BF5021EFF3118081F31188BFF34F8F6A
:10461000BFF36F8F00BF0646D4F83890E06B484573
:1046200029D994F945A009F10100A0630AF101001C
:10463000C8B9A06C40B100212046FFF731FCB8B1E9
:10464000B5B10120286013E0606A08B9012000E0DC
:10465000002068B904F1240001F091F940B13DB1A6
:104660000120286004E00AF1010040B284F845000E
:104670004FF0010801E04FF0000800BF86F31188F9
:1046800000BF4046BDE8F0872DE9F05F0646894649
:10469000174634463CB94FF4B462AFF28C51AFF2D6
:1046A000745002F077FFB9F1000F01D1206C08B906
:1046B000012000E0002038B940F2A152AFF2B05121
:1046C000AFF2985002F066FF02F0CAF900BF502125
:1046D000EFF3118081F31188BFF34F8FBFF36F8F1A
:1046E00000BF0546D4F838A0BAF1000F22D094F9E3
:1046F00044B049462046FFF79EFDAAF10100A063A1
:104700000BF1010070B9206908B9012000E0002018
:1047100068B904F1100001F032F940B13FB1012055
:10472000386004E00BF1010040B284F844004FF01F
:10473000010801E04FF0000800BF85F3118800BFB9
:104740004046BDE8F09F2DE9F047064688463446CE
:104750003CB940F2FC52AFF24861AFF2306002F077
:1047600019FFB8F1000F01D1206C08B9012000E059
:10477000002038B940F2FD52AFF26C61AFF25460E4
:1047800002F008FF206C08B1012000E0002038B9D9
:1047900040F2FE52AFF28861AFF2706002F0FAFEB2
:1047A00002F05EF900BF5021EFF3118081F3118810
:1047B000BFF34F8FBFF36F8F00BF0546A06B48B1AB
:1047C000D4F80C9041462046FFF735FDC4F80C9014
:1047D000012700E0002700BF85F3118800BF38469D
:1047E000BDE8F08770B504463CB940F22F62AFF2E5
:1047F000E061AFF2C86002F0CDFE02F0DEF8A56B1A
:1048000002F0FEF8284670BD70B5044625463DB955
:1048100040F24162AFF20871AFF2F06002F0BAFE0E
:1048200002F0CBF8D5E90E10461A02F0E9F830464E
:1048300070BD70B504463CB940F25162AFF23071C0
:10484000AFF2187002F0A6FEA56B284670BD0146B7
:1048500000200EE0764A02EBC00252688A4207D17D
:104860000022734B43F8302003EBC0035A6002E090
:10487000401C0828EED300BF704770B5044625469B
:104880003DB940F25D62AFF27871AFF2607002F054
:1048900081FE2846FFF7DBFF284602F021FA70BDB3
:1048A0000146C86C7047C1647047014691F85000DA
:1048B000704770B505463DB940F29372AFF2B071E2
:1048C000AFF2987002F066FEA86B08B9012400E010
:1048D0000024204670BD70B504463CB940F2BA725F
:1048E000AFF2D471AFF2BC7002F054FEA06BE16B7A
:1048F000884201D1012500E00025284670BD02460E
:1049000000200BE04A4B53F8303033B9484B43F8A2
:10491000301003EBC0035A6002E0401C0828F1D3BA
:1049200000BF70470246002000210AE0404B03EB25
:10493000C1035B68934203D13D4B53F8310002E061
:10494000491C0829F2D300BF70472DE9F041054604
:104950000E4617462C4602F030F894F94400401CED
:1049600010B9002084F8440094F94500401C10B9A7
:10497000002084F8450002F043F8A06B28B93A46BD
:10498000314604F1240000F0DFFF2046FFF7C6FAAD
:10499000BDE8F08170B50446002204212046FFF7EF
:1049A0001AFA0546284670BD70B504460E4602F058
:1049B00004F8A06C08B1002505E0A06B08B1002543
:1049C00001E0A664012502F01BF8284670BD2DE920
:1049D000F04105460F462E46B06CB84201D0002487
:1049E0000AE0B06B08B1002406E001F0E6FF002009
:1049F000B06402F005F801242046BDE8F08138B526
:104A000005460C46002000900023224669462846B1
:104A1000FFF726FC009838BD38B50446002000900A
:104A2000002269462046FFF72FFE009838BD00009F
:104A3000F805002010B5002407E004EB8401FB4AD0
:104A400002EB8100FFF722F9641C202CF5D3F84813
:104A5000FFF71CF9F748FFF719F9F748FFF716F9C0
:104A6000F648FFF713F9F648FFF710F9F048F54953
:104A70000860F048F449086010BD10B5044601F024
:104A80009CFFF2480068401CF0490860F04800684C
:104A900040B9EF4804600846006801280DD1FFF7CF
:104AA000C9FF0AE0EB48006838B9E9480068C06A05
:104AB000E16A884201D8E6480460E7480068401C83
:104AC000E549086008460068606494F82C100120ED
:104AD0008840E24909680843E0490860E16A01EB5F
:104AE0008101D24A02EB8100211DFFF7DFF801F0BE
:104AF00087FFD848006868B1D5480068C06AE16A95
:104B0000884207D24FF08050D5490860BFF34F8FDD
:104B1000BFF36F8F10BD2DE9F05F82460F469046C0
:104B20009B460A9E0C9C4FEA8801A522206B02F04E
:104B300059F9A8F10100216B01EB800929F007095F
:104B400009F0070008B9012000E0002028B940F270
:104B50002B32C4A1CAA002F01DFD002507E0795D3B
:104B600004F134004155785D00B902E06D1C102D50
:104B7000F5D300BF002143200155202E00D31F266E
:104B8000E662E66400202065201DFFF78CF804F142
:104B90001800FFF788F82461C6F12000A061646264
:104BA0000020606584F858005A465146484601F096
:104BB00091FE20600B9808B10B980460BDE8F09F4F
:104BC0002DE9FF4F85B0804689461746DDE912ABD7
:104BD000B80002F002F8064656B15C2001F0FDFF75
:104BE00004460CB1266304E0304602F079F800E098
:104BF00000247CB10020CDE900ABCDE902403A466B
:104C000049464046089BFFF786FF2046FFF735FFE1
:104C1000012501E04FF0FF35284609B0BDE8F08FCF
:104C200088490968096809B9012100E0002121B11A
:104C30004FF0FF31964A116006E082490968C96861
:104C4000C868934A41681160704710B50446206BEC
:104C500002F046F8204602F043F810BD70B5054654
:104C600001F0ABFE15B97A48006800E0284604461A
:104C7000201DFFF741F878B9E06A00EB80006B492E
:104C800051F8200040B994F82C1001208840734955
:104C90000968814371480160A06A18B104F11800E5
:104CA000FFF72AF86C480068401C6B4908606848A8
:104CB0000068844209D1211D6048FEF7F7FF75485E
:104CC0000068401C7349086009E060480068401EA5
:104CD0005E4908602046FFF7B8FFFFF7A1FF01F02B
:104CE0008FFE5C480068C0B159480068844214D106
:104CF0006948006808B9012000E0002028B940F2A6
:104D0000654258A15EA002F045FC4FF08050544926
:104D10000860BFF34F8FBFF36F8F70BD2DE9F04177
:104D20004FF000085C480068002872D15B480068BA
:104D3000451C5A480560EDB942480068006808B94A
:104D4000012000E0002028B940F6D91245A14CA06E
:104D500002F020FC3B4807683B480068394908607E
:104D6000394807604E480068401C4D490860FFF70D
:104D700057FF00BF4648006885423CD300BF31481A
:104D80000068006808B9012000E0002020B14FF061
:104D9000FF303F4908602DE02A480068C068C468B9
:104DA0006668B54202D23A48066023E0201DFEF74D
:104DB000A3FFA06A18B104F11800FEF79DFF94F854
:104DC0002C100120884025490968084323490860C0
:104DD000E16A01EB8101154A02EB8100211DFEF71A
:104DE00065FF1B49E06A0968C96A8842C7D34FF06A
:104DF0000108C4E700BF16480068C06A00EB8000E5
:104E00000A4951F82000012801D94FF0010805E0B6
:104E1000FFE724480068401C2249086022480068D7
:104E200008B14FF001084046BDE8F0813806002087
:104E3000B8080020CC080020E0080020F40800207A
:104E40000809002030050020340500203C05002022
:104E50002C050020480500205805002044050020AE
:104E600004ED00E02E2E5C2E2E5C557365725C46C0
:104E700072656552544F535C7461736B732E63009B
:104E80004572726F723A25732C25640D0A0000007A
:104E90005C05002038050020640500204005002046
:104EA000540500204C0500205005002070B500245A
:104EB0000026FE48006838B94FF4FD62AFF25C018D
:104EC000AFF2440002F066FB01F077FDF74800689E
:104ED000401EF64908600846006800284FD1F44893
:104EE000006800284BD024E0F248C068C46804F190
:104EF0001800FEF701FF201DFEF7FEFE94F82C10AF
:104F000001208840EC4909680843EB490860E16AE0
:104F100001EB8101E94A02EB8100211DFEF7C6FE8B
:104F2000E749E06A0968C96A884202D30120E54975
:104F30000860E048006808B9012000E0002000286F
:104F4000D2D00CB1FFF76CFEDF48056865B100BF39
:104F5000FFF7E4FE10B10120DA4908606D1E002D54
:104F6000F6D10020D8490860D648006838B101263B
:104F70003007D6490860BFF34F8FBFF36F8F01F042
:104F80003FFD304670BD2DE9F04105460E46D04844
:104F90000768CB480068001DFEF7AEFE50B9C84850
:104FA000006890F82C1001208840C34909688143AB
:104FB000C1480160681C38B936B1C1480168091D93
:104FC000C448FEF773FE1AE07C19BD4800684460CF
:104FD000BC4207D2BA480168091DBF480068FEF705
:104FE00071FE0CE0B6480168091DBC480068FEF778
:104FF00069FEBB480068844201D2B9480460BDE83C
:10500000F081AA480068401CA849086070472DE953
:10501000F04704460F464FF000093CB940F2794290
:10502000AFF2C011AFF2A81002F0B4FA0FB1012034
:1050300000E0002038B940F27A42AFF2D811AFF266
:10504000C01002F0A7FA9948006808B9012000E0F2
:10505000002038B940F27B42AFF2F811AFF2E01015
:1050600002F098FAFFF7CDFF994806682068C51945
:105070002068B04207D92068A8420BD9B54209D9A7
:105080004FF0010906E02068A84201D8B54201D9D5
:105090004FF001092560B9F1000F03D0A81B0021D2
:1050A000FFF771FFFFF702FF8046B8F1000F07D14D
:1050B0004FF0805085490860BFF34F8FBFF36F8F6B
:1050C000BDE8F08770B504460025BCB1774800689C
:1050D00008B9012000E0002038B940F2CF42AFF219
:1050E0007C21AFF2642002F055FAFFF78AFF00211D
:1050F0002046FFF748FFFFF7D9FE05463DB94FF0C0
:10510000805072490860BFF34F8FBFF36F8F70BD3F
:105110002DE9F04107463E463EB940F2FB42AFF270
:10512000BC21AFF2A42002F035FA6548006886423F
:1051300001D100241EE001F040FC756901F060FC23
:1051400066480068854203D063480068854201D103
:1051500002240FE05F48854205D1B06A08B90324F4
:1051600008E0022406E05F48854200D00DB904241F
:1051700000E001242046BDE8F08170B5044601F04E
:105180001CFC14B94E48006800E020460646F56A4B
:1051900001F036FC284670BD2DE9F041054601F0CE
:1051A0005FFC00BF5021EFF3118081F31188BFF342
:1051B0004F8FBFF36F8F00BF044615B9404800689A
:1051C00000E028460746FE6A00BF84F3118800BF4E
:1051D0003046BDE8F0812DE9F04780460D464FF09E
:1051E0000009202D01D2012000E0002038B94FF441
:1051F000B062AFF29031AFF2783002F0CBF9202DEF
:1052000000D31F2501F0D9FBB8F1000F02D12C48C3
:10521000006800E040460446E66CAE4277D0B542F6
:105220000BD92748006884420DD025480068C06A21
:10523000A84208D84FF0010905E0214800688442DF
:1052400001D14FF00109E76AE16AE06C884200D1C0
:10525000E562E564A06900F0004010B9C5F12000E6
:10526000A06107EB8701154A02EB81016069884262
:1052700001D1012000E00020B0B3201DFEF73CFD6D
:1052800030B90120B8400C49096881430A480160DF
:1052900094F82C1001208840074909680843064902
:1052A0000860E16A01EB8101044A1FE06405002007
:1052B0003C050020E00800204405002038060020BE
:1052C0002C050020500500204C05002004ED00E0D6
:1052D000400500200809002034050020300500208A
:1052E0005C050020F408002005E010E002EB8100DE
:1052F000211DFEF7DBFCB9F1000F07D04FF0805005
:10530000FB490860BFF34F8FBFF36F8F00BF01F001
:1053100077FBBDE8F08710B5F648006818B10120AA
:10532000F54908602FE00020F3490860F348006861
:10533000B0FA80F0C0F11F0404EB8400F04951F88A
:10534000200008B1012000E0002038B940F6F62224
:10535000AFF2F041AFF2D84002F01CF904EB840147
:10536000E74A02EB810041684968416000F10801A9
:1053700042688A4202D14168496841604168C9680F
:10538000E04A116000BF10BD70B5054601F015FB85
:1053900015B9DC48006800E028460446201DFEF7E9
:1053A000ABFC78B9E06A00EB8000D54951F82000E9
:1053B00040B994F82C1001208840D04909688143F5
:1053C000CE480160A06A18B104F11800FEF794FC01
:1053D000211DCD48FEF76AFC01F012FBCB480068A6
:1053E00028B101F0EAFAFFF71BFC01F009FBC54800
:1053F0000068844226D1C5480068B8B1BD4800683D
:1054000008B9012000E0002038B940F25762AFF23D
:10541000AC51AFF2945002F0BDF84FF08050B44957
:105420000860BFF34F8FBFF36F8F0BE0B648006883
:10543000B7490968884203D10020B249086001E0F9
:10544000FFF769FF70BD70B5054600262C463DB9D3
:1054500040F28162AFF2F451AFF2DC5002F09AF800
:10546000A9496069884201D1012000E0002070B1A3
:10547000A849A06A884201D1012000E0002030B98B
:10548000A06A08B9012000E0002000B101263046E2
:1054900070BD70B505462C463DB940F2AB62AFF227
:1054A0003C61AFF2246002F075F874B3954800686F
:1054B00084422AD001F081FA2046FFF7C4FF10B3DE
:1054C000201DFEF719FC94F82C10012088408B4910
:1054D0000968084389490860E16A01EB8101884A4B
:1054E00002EB8100211DFEF7E1FB8649E06A0968B5
:1054F000C96A884207D34FF080507D490860BFF3E6
:105500004F8FBFF36F8F01F07BFA70BD2DE9F04133
:105510000646002734463EB940F2E262AFF2BC6173
:10552000AFF2A46002F036F801F09AFA00BF502101
:10553000EFF3118081F31188BFF34F8FBFF36F8FAB
:1055400000BF05462046FFF77EFF20B3694800688C
:10555000E0B96C49E06A0968C96A884200D301274A
:10556000201DFEF7C9FB94F82C10012088406349E8
:105570000968084361490860E16A01EB8101604AFA
:1055800002EB8100211DFEF791FB04E004F11801FC
:105590006048FEF78BFB00BF85F3118800BF3846DB
:1055A000BDE8F08170B523E0FFF72BFD5A48006895
:1055B00008B9012000E000200546FFF777FCBDB9DF
:1055C00001F0FBF95448C068C468201DFEF794FB45
:1055D0004F480068401E4E49086050480068401E11
:1055E0004E49086001F00CFA2046FFF72EFB00BF81
:1055F0004A4800680028D7D170BD00BFFFF7D2FF2E
:105600003F4800680128F9D94FF0805038490860B8
:10561000BFF34F8FBFF36F8FF0E71CB540480021F9
:105620000B468222CDE900103EA14048FFF7C8FAA0
:105630000446012C02D100F0EDFF0446012C15D1E7
:1056400000BF502080F31188BFF34F8FBFF36F8FDF
:1056500000BF4FF0FF303649086001202B49086039
:1056600000203449086001F051F90DE0601C08B1D8
:10567000012000E0002038B940F28472AFF61C012E
:10568000AFF6040001F086FF1CBD10B500BF50202E
:1056900080F31188BFF34F8FBFF36F8F00BF0020DF
:1056A0001A49086001F078F910BD2249086870476E
:1056B00070B501F0D5F900251E480468204670BD7C
:1056C00013480068704770B5044614B90D48006867
:1056D00000E0204605463DB940F68C02AFF67C015D
:1056E000AFF6640001F056FF05F1340070BD000014
:1056F00004ED00E064050020500500204405002072
:10570000380600202C05002008090020480500204C
:105710003C050020E0080020F408002038050020A7
:105720006005002049444C4500000000FB5500087E
:105730005C050020400500200246002101E0521CCB
:10574000491C1078A528FAD0890888B270472DE93D
:10575000F04107460C4690461E4617B9F7480068C8
:1057600000E038460546256005F134006060E86ACF
:105770002061286BE061686CA060207B032807D162
:10578000FFF73FFCA86A08B102202073FFF78EFBE9
:10579000E86C60610020A061052E01D0267303E053
:1057A0003846FFF7B5FC2073B8F1000F04D0286B22
:1057B000FFF7C2FF208401E000202084BDE8F081D3
:1057C0002DE9F04707460C4690460026206848B36E
:1057D000204641684968416000F1080142688A42F8
:1057E00002D14168496841604168D1F80C9000BF1E
:1057F000204641684968416000F1080142688A42D8
:1058000002D14168496841604168CD6806EBC60035
:1058100007EB8001434601222846FFF798FF761CDC
:105820004D45E5D13046BDE8F0872DE9F04105460C
:105830008846164600242027FFF7E3FBC04800688F
:10584000804539D300BF7F1E07EB8702BD4B03EBBA
:10585000820104EBC40205EB82000122FFF7B0FFD6
:105860000444002FEFD104EBC40105EB81000222B8
:10587000B5490968FFF7A4FF044404EBC40105EB34
:1058800081000222B1490968FFF79AFF044404EB42
:10589000C40105EB81000422AD49FFF791FF0444E8
:1058A00004EBC40105EB81000322AA49FFF788FF3E
:1058B00004440EB100203060FFF7F8FA2046BDE83E
:1058C000F08170B504460D463CB940F60632AFF69D
:1058D0006C21AFF6542001F05DFE98480168183144
:1058E0002046FEF7EFF901212846FFF74CFB70BD7B
:1058F00070B504460D4616463CB940F61732AFF671
:105900009C21AFF6842001F045FE9348006808B161
:10591000012000E0002038B940F61B32AFF6BC2170
:10592000AFF6A42001F036FE45F000408349096837
:1059300088618248016818312046FEF7B7F90121D5
:105940003046FFF720FB70BD70B505460E46144685
:105950003DB940F63132AFF6F421AFF6DC2001F06C
:1059600019FE7648016818312846FEF79FF90CB1F8
:105970004FF0FF3621463046FFF705FB70BD70B58E
:105980000646F068C4683CB940F66132AFF62C3187
:10599000AFF6143001F0FEFD04F11800FEF7ACF98B
:1059A0006D480068A8B9201DFEF7A6F994F82C10E0
:1059B0000120884069490968084368490860E16A2C
:1059C00001EB81015F4A02EB8100211DFEF76EF9B8
:1059D00004E004F118016248FEF768F95749E06AEB
:1059E0000968C96A884204D9012501205D49086017
:1059F00000E00025284670BD2DE9F04105460F4620
:105A00005548006808B1012000E0002038B940F690
:105A10009932AFF6B031AFF6983001F0BBFD47F0E8
:105A200000402860EC683CB940F6A132AFF6CC31BA
:105A3000AFF6B43001F0AEFD2846FEF75DF9201D4B
:105A4000FEF75AF994F82C10012088404349096860
:105A5000084342490860E16A01EB8101394A02EBDF
:105A60008100211DFEF722F93449E06A0968C96AFC
:105A7000884204D9012601203A49086000E0002646
:105A80003046BDE8F08110B504463CB940F6C1325D
:105A9000AFF63041AFF6184001F07CFD32480068A7
:105AA000206032480068606010BD2DE9F041044676
:105AB0000D463CB940F6CB32AFF65841AFF6404008
:105AC00001F068FD3DB940F6CC32AFF66841AFF663
:105AD000504001F05FFD00F070FF2448076828681F
